:100000000C9465000C948D000C948D000C948D0064
:100010000C948D000C948D000C948D000C948D002C
:100020000C948D000C948D000C944F060C948D0054
:100030000C948D000C9433060C948D000C948D0060
:100040000C9459110C948D000C949E120C948D00FC
:100050000C948D000C948D000C948D000C948D00EC
:100060000C94FD020C948D00000000002400270079
:100070002A0000000000250028002B0000000000DE
:1000800023002600290004040404040404040202DA
:100090000202020203030303030301020408102007
:1000A0004080010204081020010204081020000012
:1000B0000007000201000003040600000000000029
:1000C0000000F4013B07F507231411241FBECFEFF6
:1000D000D4E0DEBFCDBF11E0A0E0B1E0EEEBFEE288
:1000E00002C005900D92A838B107D9F713E0A8E82F
:1000F000B1E001C01D92A434B107E1F710E0CAECF1
:10010000D0E004C02297FE010E945917C23CD107DB
:10011000C9F70E9452110C945D170C9400000F93C4
:100120001F93CF93DF93689F8001699F100D789F85
:10013000100D1124C8010E94AB00EC01009729F0BA
:1001400060E070E0A8010E94AD01CE01DF91CF9187
:100150001F910F910895CF93DF93BC0182309105D9
:1001600010F462E070E0A0914203B0914303ED010E
:10017000E0E0F0E040E050E021C0888199818617FE
:10018000970769F48A819B81309719F09383828362
:1001900004C09093430380934203FE0134C0681768
:1001A000790738F44115510519F08417950708F4BB
:1001B000AC01FE018A819B819C01E9012097E9F64F
:1001C00041155105A9F1CA01861B970B049708F444
:1001D000BA01E0E0F0E02AC08D919C91119784175C
:1001E0009507F9F46417750781F412968D919C9127
:1001F0001397309719F09383828304C0909343033D
:1002000080934203FD0132964CC0CA01861B970BB6
:10021000FD01E80FF91F6193719302978D939C93F1
:1002200040C0FD01828193819C01D9011097A1F604
:100230008091400390914103892B41F48091060104
:1002400090910701909341038093400340910801EE
:10025000509109014115510541F44DB75EB78091A8
:10026000040190910501481B590B209140033091E6
:100270004103CA01821B930B8617970780F0AB01DD
:100280004E5F5F4F8417950750F0420F531F5093F6
:10029000410340934003F9016193719302C0E0E090
:1002A000F0E0CF01DF91CF910895CF93DF930097D6
:1002B00009F450C0EC0122971B821A82A0914203DC
:1002C000B0914303109709F140E050E0AC17BD072F
:1002D00008F1BB83AA83FE0121913191E20FF31F44
:1002E000AE17BF0779F48D919C911197280F391F94
:1002F0002E5F3F4F3983288312968D919C911397DF
:100300009B838A834115510571F4D0934303C093B5
:10031000420320C012968D919C911397AD010097D6
:1003200011F0DC01D3CFFA01D383C2832191319143
:10033000E20FF31FCE17DF0769F488819981280F38
:10034000391F2E5F3F4FFA01318320838A819B81C1
:1003500093838283DF91CF910895DC0101C06D9377
:1003600041505040E0F70895F999FECF72BD61BD4C
:10037000F89A80B50895F999FECF1FBA72BD61BD94
:1003800040BD0FB6F894FA9AF99A0FBE089581E02D
:100390008093920160938D011092900110929101CF
:1003A000089581E08093920160938D0110929001F5
:1003B00010929101089580918C0190918B01891B7D
:1003C000089590918B0180918C01981710F080E036
:1003D0000895E0918901F0918A01E90FF11D808172
:1003E0009F5F90938B0108950895DF93CF930F92B1
:1003F000CDB7DEB76983809192018823A9F08091FF
:1004000091018032B0F480919001E0918E01F091E1
:100410008F01E80FF11D6083809190018F5F8093C1
:1004200090018093910105C0CE01019661E00E9488
:10043000E0020F90CF91DF9108950E94F501089599
:1004400060918E0170918F0180918D014091910199
:1004500021E00E949B021092900110929101109253
:1004600092010895862F6091890170918A0141322D
:1004700008F040E20E94630210928B0180938C018D
:1004800008950E943202089580E290E061E070E0F9
:100490000E948F008093890190938A0110928B01B2
:1004A00010928C0180E290E061E070E00E948F0089
:1004B00080938E0190938F01109290011092910180
:1004C0000E947F040895982F413210F040E031C01F
:1004D000809194018823E1F781E0809394018FEF6C
:1004E0008093A50110929C01415040939D014F5F64
:1004F000990F91609093950185EE8093BC00809157
:1005000094018130E1F380919C01841710F44091B3
:100510009C01A0919A01B0919B0120E030E007C0BE
:10052000FB01E20FF31F8D9180832F5F3F4F241754
:10053000B8F3842F08951F93582F122F413210F0D3
:1005400081E03CC0809194018823E1F782E08093B0
:1005500094018FEF8093A50110929C0140939D011F
:10056000A0919A01B0919B01FB0102C081918D93F2
:100570008E2F861B8417D0F3852F90E0880F991F4C
:100580008093950185EE8093BC00112321F080912A
:1005900094018230E1F38091A5018F3F11F480E056
:1005A0000DC08091A501803211F482E007C08091D6
:1005B000A501803311F084E001C083E01F9108950C
:1005C000482F613210F081E00895809194018430C9
:1005D00011F082E008956093A101A0919E01B09175
:1005E0009F01842F9C01F90102C081918D938E2F70
:1005F000841B8617D0F380E008951F920F920FB6E8
:100600000F9211242F933F934F935F936F937F9398
:100610008F939F93AF93BF93EF93FF938091B90014
:1006200090E0887F90708036910509F4E2C08136B1
:100630009105CCF58832910509F47BC0893291058A
:10064000B4F48031910509F46FC0813191053CF417
:10065000009709F438C1089709F040C165C0883196
:10066000910509F466C0809709F038C17FC08034D5
:10067000910509F4A3C08134910544F480339105B8
:1006800009F47FC0C89709F029C186C0803591055B
:1006900009F486C08835910509F495C08834910520
:1006A00009F01CC19EC08839910509F404C189393B
:1006B0009105ECF48837910509F49BC089379105C1
:1006C0004CF48836910509F494C08037910509F0FF
:1006D00005C18FC08838910509F4EDC080399105B6
:1006E00009F48DC08038910509F0F8C088C0803BBE
:1006F000910509F4B2C0813B91054CF4803A910513
:1007000009F491C0883A910509F0E8C0A6C0803C80
:10071000910509F4D4C0883C910509F4D0C0883B08
:10072000910509F0DBC0B1C0809195018093BB00B9
:10073000C0C090919C0180919D01981778F4909190
:100740009C01E0919A01F0919B01E90FF11D8081DC
:100750008093BB009F5F90939C01ABC085ED80931D
:10076000BC008091BC0084FDFCCFB6C080E28093C9
:10077000A50185ED8093BC008091BC0084FDFCCF79
:10078000ABC080E38093A50185ED8093BC00809190
:10079000BC0084FDFCCFA0C088E38093A5018FC07E
:1007A00080919C019091BB00E0919A01F0919B0196
:1007B000E80FF11D90838F5F80939C0190919C01C5
:1007C00080919D0174C080919C019091BB00E0914B
:1007D0009A01F0919B01E80FF11D90838F5F809348
:1007E0009C0185ED8093BC008091BC0084FDFCCF12
:1007F00073C083E0809394011092A4015AC0809149
:10080000A401803208F057C08091A4019091BB00F0
:10081000E091A201F091A301E80FF11D90838F5F99
:100820008093A40146C08091A401803248F4809155
:10083000A401E091A201F091A301E80FF11D108243
:100840006091A401E0919801F09199018091A20139
:100850009091A30170E0099532C084E080939401E7
:100860001092A0011092A101E0919601F0919701E0
:1008700009958091A101882341F481E08093A10131
:10088000E0919E01F0919F0110829091A001E09172
:100890009E01F0919F01E90FF11D80818093BB00C3
:1008A0009F5F9093A0019091A0018091A101981762
:1008B00010F485EC01C085E88093BC000FC085EC86
:1008C0008093BC0009C01092A50185ED8093BC0007
:1008D0008091BC0084FDFCCF10929401FF91EF91B8
:1008E000BF91AF919F918F917F916F915F914F9148
:1008F0003F912F910F900FBE0F901F90189510925F
:100900009401449A459AE9EBF0E080818E7F8083E0
:1009100080818D7F808388E48093B80085E4809314
:10092000BC0080E290E061E070E00E948F00809364
:100930009A0190939B0180E290E061E070E00E9458
:100940008F0080939E0190939F0180E290E061E090
:1009500070E00E948F008093A2019093A3010895FC
:10096000FC0110828FEF8183138212828EE38483D5
:100970008DE78583178216820895EF92FF920F9379
:100980001F93CF93DF93EC019B01653B710594F0BE
:10099000285E3340B901882777FD8095982F0E9403
:1009A000E5152CEE31E548E35EE30E9471160E94E6
:1009B000B2159B0137FF03C020E030E005C0253BA6
:1009C000310514F024EB30E02983EC806D8170E078
:1009D0006E197109882777FD8095982F982F872F9A
:1009E000762F662730E040E050E00E94D41624EBDA
:1009F00030E040E050E00E942817FF2400E010E0C3
:100A0000102F0F2DFE2CEE24E20EF31E041F151FD7
:100A1000C801B70120E430E040E050E00E94281710
:100A20003B832A83DF91CF911F910F91FF90EF902D
:100A300008955F926F927F928F929F92AF92BF9232
:100A4000CF92DF92EF92FF920F931F93DF93CF939A
:100A5000CDB7DEB76DB67EB6ADB65EB60E94A1115B
:100A60002091A8013091A9014091AA015091AB01B8
:100A7000621773078407950750F02C5E3F4F4F4F66
:100A80005F4F621773078407950708F4AFC0609340
:100A9000A8017093A9018093AA019093AB01E09102
:100AA000A601F091A701BB2408C082819381892B04
:100AB00009F0B3940680F781E02D3097B1F7BB20A1
:100AC00009F494C08B2D90E0880F991F2DB73EB785
:100AD000281B390B0FB6F8943EBF0FBE2DBFCDB605
:100AE000DEB60894C11CD11CA091A601B091A7014B
:100AF00020E013C012968D919C911397892B49F099
:100B0000E22FF0E0EE0FFF1FEC0DFD1DB183A0837F
:100B10002F5F16960D90BC91A02D109759F72CC001
:100B2000812F90E07C01EE0CFF1CEC0CFD1CD7012A
:100B30006D917C91FC013197EE0FFF1FEC0DFD1DB7
:100B400040815181DB0112962D913C911397DA017E
:100B500012968D919C9113972817390730F4D7017D
:100B60004D935C937183608301E01F5F1B15C0F29E
:100B7000002311F410E011C011E000E0F7CFE12FE5
:100B8000F0E0EE0FFF1FEC0DFD1D0190F081E02D58
:100B9000808161E00E9451121F5F1B1580F3F6B443
:100BA000EE2400E010E08F2C99241EC0EE2DF0E022
:100BB000EE0FFF1FEC0DFD1D0190F081E02D228155
:100BC0003381280D391D86B58F1510F400501F4F45
:100BD000F82EC8018F0D911D28173907A0F78081C5
:100BE00060E00E945112E394EB1400F38A2D952DDE
:100BF0009C010FB6F8943EBF0FBE2DBF0FB6F89400
:100C00007EBE0FBE6DBECF91DF911F910F91FF9001
:100C1000EF90DF90CF90BF90AF909F908F907F909C
:100C20006F905F9008950F931F938C01FC01608378
:100C30008FEF8183138212828091A6019091A70188
:100C4000978386831093A7010093A601808160E0BB
:100C50000E945112F801808161E00E94311281E00E
:100C60001F910F9108951F920F920FB60F921124AA
:100C70008F939F938091AE019091AF01029741F4C1
:100C800083E090E09093AF018093AE011092D50184
:100C90009F918F910F900FBE0F901F9018951F92EC
:100CA0000F920FB60F9211242F933F938F939F9320
:100CB000EF93FF93809181002091AC0190E08074CC
:100CC000907030E08217930709F093C0109285006E
:100CD0001092840080918600909187008057974100
:100CE00008F451C080918600909187009695879571
:100CF0009093C3018093C2018091AE019091AF01A6
:100D0000029741F49091D5018091D401981709F090
:100D100061C066C08091AE019091AF01892B49F40A
:100D200081E090E09093AF018093AE011092D601E4
:100D300057C08091AE019091AF010197A9F48091C5
:100D4000D6018F5F8093D6018091D601893008F457
:100D500047C082E090E09093AF018093AE01809114
:100D6000D5018093D4013CC08091AE019091AF0138
:100D70000397B1F59091D5018091D401981781F531
:100D800082E090E029C08091D501883090F5809173
:100D90008600909187008C5D954028F180918600B7
:100DA0009091870085599141F0F48091D5018F5F32
:100DB0008093D501E091D501F0E08091860090917B
:100DC000870096958795EE0FFF1FEE53FE4F918398
:100DD00080830FC083E090E09093AF018093AE01D9
:100DE0001092D50106C08091AE019091AF0102979B
:100DF00089F3FF91EF919F918F913F912F910F90E8
:100E00000FBE0F901F9018952091AE013091AF0149
:100E1000C9010895693020F58091AE019091AF012C
:100E2000039711F5E62FF0E0EE0FFF1FE055FE4FA0
:100E300080819181892BC1F06081718113C0809183
:100E4000AE019091AF01039759F4F894E62FF0E0CA
:100E5000EE0FFF1FEE53FE4F60817181789402C048
:100E600060E070E0CB0108958091AE019091AF01F8
:100E7000029729F7EACF089588E060E00E943112D6
:100E80001092D5011092AF011092AE011092800025
:100E900082E08093810081E280936F000895EF9259
:100EA000FF920F931F93CF93DF938B01EA017C0195
:100EB000E61AF70A888599858E0D9F1D9987888780
:100EC0002091790130917A0144275527421B530B19
:100ED000841795071CF45987488705C028173907D8
:100EE00014F4398728878E819F819801281B390B3C
:100EF0008C819D81AC01249FC001259F900D349F62
:100F0000900D11246AE070E00E94F316FB011F832C
:100F10000E8388819981BC01E69EC001E79E900DF9
:100F2000F69E900D11246AE070E00E94F3169B017A
:100F30002E0F3F1F488559858A819B81BC01469FA2
:100F4000C001479F900D569F900D11246AE070E0FC
:100F50000E94F316260F371FC901DF91CF911F9111
:100F60000F91FF90EF900895AF92BF92CF92DF92D2
:100F7000EF92FF920F931F93CF93DF935C016B016E
:100F8000EC0100E010E0EE24FF2460E070E018C007
:100F90002D913C911197888199812817390709F47F
:100FA00031964F5F5F4F12964C155D058CF3EE1630
:100FB000FF061CF4088119817F016F5F7F4F229625
:100FC0006C157D0534F4D501E0E0F0E040E050E040
:100FD000EBCFC801DF91CF911F910F91FF90EF9060
:100FE000DF90CF90BF90AF9008958CE192E00E9487
:100FF000B00484E292E00E94B0048CE292E00E948D
:10100000B00484E392E00E94B00408958DE293E07E
:101010006CE20E9494140895EF92FF920F931F9335
:10102000CF93DF937C018B01C0E0D0E008C08DE25C
:1010300093E0B8010E9485150E9406082196CE15FE
:10104000DF05ACF3DF91CF911F910F91FF90EF90EF
:1010500008950F931F93CF93DF938C0183E991E061
:101060006DE170E00E94D101B8016F5F7F4F83E9AD
:1010700091E00E941D0283E991E00E94200283E931
:1010800091E06DE170E041E050E00E944102C0E07B
:10109000D0E006C083E991E00E94E101C82FD0E0D2
:1010A00083E991E00E94DB018823A1F7DC2FCC27A4
:1010B00083E991E06DE170E00E94D10183E991E064
:1010C000B8010E941D0283E991E00E94200283E999
:1010D00091E06DE170E041E050E00E94410206C005
:1010E00083E991E00E94E101C80FD11D83E991E0FD
:1010F0000E94DB018823A1F7CE01DF91CF911F91E0
:101100000F9108951F93162F8130910541F0823081
:10111000910551F0892BB9F488E290E002C08CE28D
:1011200090E00E94290810C08AE290E00E942908FD
:101130009C01112319F480E090E002C080E094E06B
:10114000820F931F01C001C0282F822F1F91089585
:10115000EF92FF920F931F93282FF62EE42E03E9B0
:1011600011E0C801622F0E94C701C8016F2D0E94C3
:10117000F501C8016E2D0E94F501C8010E942002F0
:101180001F910F91FF90EF90089583E991E00E94E5
:1011900044028DE161E240E40E94A8088DE160E232
:1011A00047ED0E94A8080895CF92DF92EF92FF9238
:1011B0000F931F93CF93DF9301E511E0C5E6D1E0D4
:1011C000EE24FF2490E1C92ED12C8E2D0E94131203
:1011D000F80120813181821B930B978386832091B4
:1011E000630130916401AC01429FC001439F900DA7
:1011F000529F900D1124A601421B530B2485358567
:10120000B901469F9001479F300D569F300D112424
:10121000820F931F60E170E00E94F3167587648768
:10122000C70161E00E94820828813981821B930BEB
:101230009F838E832091770130917801FC01E29F9A
:10124000C001E39F900DF29F900D1124A601421B57
:10125000530B2C853D85B901469F9001479F300D6A
:10126000569F300D1124820F931F60E170E00E94A1
:10127000F3167D876C870894E11CF11C0E5F1F4FED
:10128000229673E0E716F10409F09FCFE090750114
:10129000F09076010027F7FC0095102F6091730104
:1012A00070917401882777FD8095982F28EE33E0A0
:1012B00040E050E00E94D416A80197010E94281730
:1012C0003093100220930F026091710170917201AE
:1012D000882777FD8095982F28EE33E040E050E096
:1012E0000E94D416A80197010E9428173093120279
:1012F00020931102DF91CF911F910F91FF90EF90FA
:10130000DF90CF9008958330910519F482E090E04A
:1013100005C08230910511F483E090E0682F6F5F83
:101320008DEA91E00E940A0708958DEA91E00E94FB
:101330003C076AEF70E080E090E00E94AF118DEA18
:1013400091E00E9404070297A1F70895609140017F
:10135000709141018CE192E00E94BD0460914201D4
:101360007091430184E292E00E94BD0460914401C7
:10137000709145018CE292E00E94BD0460914601AB
:101380007091470184E392E00E94BD040895EF92BA
:10139000FF920F931F938CE192E064E070E00E9453
:1013A000130684E292E065E070E00E9413068CE28E
:1013B00092E066E070E00E94130684E392E067E04A
:1013C00070E00E94130688EE93E0909341018093B1
:1013D0004001909343018093420190934501809393
:1013E000440190934701809346010E94A6090E9400
:1013F000A1117B018C0180EA9FE0A0E0B0E0E80E43
:10140000F91E0A1F1B1F02C00E9419050E94A1118C
:101410006E157F0580079107B8F31F910F91FF901C
:10142000EF900895DF92EF92FF920F931F93482F52
:10143000D92E8B0128E8E22E21E0F22EC7010E946E
:10144000BB010F5F1F4FC701B8014D2D0E94BB01AB
:101450001F910F91FF90EF90DF900895EF92FF9210
:101460000F931F93CF93DF9335E6E32E31E0F32EF6
:1014700000E010E019C0C80160E00E948208899372
:10148000999382E0C03AD807B1F78CE392E062E327
:1014900070E00E94B407F701819391937F010F5F81
:1014A0001F4F0330110519F0CCE3D2E0E4CF809157
:1014B00067019091680160E470E00E94120A8091D7
:1014C0006501909166016CE370E00E94120A8091C0
:1014D000690190916A0164E470E00E94120ADF9150
:1014E000CF911F910F91FF90EF900895EF92FF928F
:1014F0001F93CF93DF9341E5E42E41E0F42E10E0FB
:101500002EC0812F0E9413128993999382E0C03AD2
:10151000D807B9F78CE392E062E370E00E94B40769
:10152000F701819391937F01809153019091540130
:1015300060E670E00E94120A809151019091520180
:1015400064E670E00E94120A809155019091560164
:1015500068E670E00E94120A1F5F133019F0CCE3B6
:10156000D2E0CFCFDF91CF911F91FF90EF90089500
:1015700080910E0190910F0127E08D369207F4F0D3
:1015800080914E018823B9F581E080934E018CE46F
:1015900094E09093500180934F01809116019091B7
:1015A000170190933B0180933A018091180190912B
:1015B000190190933D0180933C011DC08C549440CF
:1015C000D4F480914E018823B1F010924E0188EE40
:1015D00093E0909341018093400190934301809365
:1015E0004201909345018093440190934701809379
:1015F00046010E94A60980910E0190910F018C5422
:101600009440F4F480910A0190910B018D5697401B
:10161000BCF080910C0190910D018C54944084F4A5
:101620000E94760A0E942E0A1092FA011092F90185
:10163000109204021092030210920E0210920D02F8
:101640000895EF92FF920F931F93CF93DF93C6E11C
:10165000D1E000E010E050E1E52EF12CC8010E943D
:1016600083092C97998388832C96288D398DAC011A
:10167000429FC001439F900D529F900D1124A701DE
:10168000421B530B28813981B901469F9001479F26
:10169000300D569F300D1124820F931F60E170E0D2
:1016A0000E94F3169B017983688303301105BCF413
:1016B0002C5D354080913E0190913F01AC01249F0B
:1016C000C001259F900D349F900D112460E170E0C2
:1016D0000E94F31664527A4F7D876C8702C07D8723
:1016E0006C870F5F1F4F22960630110509F0B6CFA9
:1016F00080911001909111018C54944074F41092D7
:10170000FA011092F9011092040210920302109251
:101710000E0210920D020E94B80A80911C01909155
:101720001D0165E0853196071CF0885C904005C07E
:101730008C54944034F48CE494E090935001809362
:101740004F01DF91CF911F910F91FF90EF9008957E
:10175000CF93DF938DE293E00E94D413882309F4A2
:10176000C1C08DE293E00E94E81380937B0187352E
:1017700009F450C0893509F0B5C029E030E0309354
:10178000F2012093F1011092F4011092F30182EE24
:101790009FEF9093F6018093F5013093FC01209325
:1017A000FB011092FE011092FD01909300028093C4
:1017B000FF01909306028093050210920802109296
:1017C000070210920A021092090288EE93E09093A9
:1017D0007A018093790183E090E090933F018093B8
:1017E0003E0190936401809363019093780180930C
:1017F00077010E94760A0E942E0A1092FA01109236
:10180000F901109204021092030210920E0210923B
:101810000D0268C08091F1019091F20160E070E0EA
:101820000E94120A8091F3019091F40164E070E04B
:101830000E94120A8091F5019091F60168E070E033
:101840000E94120A8091FB019091FC016CE770E00C
:101850000E94120A8091FD019091FE0160E870E003
:101860000E94120A8091FF019091000264E870E0EA
:101870000E94120A809105029091060268E170E0D0
:101880000E94120A80910702909108026CE170E0B8
:101890000E94120A8091090290910A0260E270E0AF
:1018A0000E94120A8091790190917A0164E270E0BD
:1018B0000E94120A80913E0190913F0160E370E026
:1018C0000E94120A809163019091640164E370E0C8
:1018D0000E94120A809177019091780168E370E08C
:1018E0000E94120A80917B018A3409F486C08B34ED
:1018F0009CF4843409F45AC085343CF4813209F4F0
:10190000CEC1823409F0D4C11AC0863409F469C04A
:10191000883409F0CDC16CC0833509F496C0843594
:101920003CF48C3409F476C0813509F0C1C1FCC0A7
:10193000843509F458C1853509F0BAC19BC160915D
:10194000F1017091F2018DE293E00E9485150E94F1
:1019500006086091F3017091F4018DE293E00E941A
:1019600085150E9406086091F5017091F6018DE2DF
:1019700093E00E9485150E9406086091FB0170911A
:10198000FC018DE293E00E9485150E94060860919B
:10199000FD017091FE018DE293E00E9485150E9489
:1019A00006086091FF017091000218C06091050265
:1019B000709106028DE293E00E9485150E94060850
:1019C00060910702709108028DE293E00E948515F4
:1019D0000E9406086091090270910A028DE293E06C
:1019E00031C085E090E060E070E00E940C0826C005
:1019F0008DE293E060E070E01DC08DE293E060ED69
:101A000077E00E9485150E9406088DE293E063E06E
:101A100070E018C060916301709164018DE293E001
:101A20000E9485150E9406086091770170917801E7
:101A30008DE293E00E9485150E9406088DE293E0F6
:101A400060E070E00E948D1530C16091EF017091EF
:101A5000F0018DE293E00E9485150E9406086091D6
:101A60005D0170915E018DE293E00E9485150E94F8
:101A7000060860915F01709160018DE293E00E9421
:101A800085150E94060860916101709162018DE2E6
:101A900093E00E9485150E94060860911C017091D8
:101AA0001D018DE293E00E9485150E940608609159
:101AB0004801709149018DE293E00E9485150E94D2
:101AC000060860914A0170914B018DE293E00E94FB
:101AD00085150E94060860914C0170914D018DE2C0
:101AE00093E00E9485150E940608C0E4D1E0699148
:101AF00079918DE293E00E9485150E94060881E0AD
:101B0000C834D807A1F74E8150E060E070E08DE264
:101B100093E022E030E00E949D150E94060860914B
:101B20001E0170911F01B6C060915F01709160014C
:101B30008DE293E00E9485150E94060860915D0188
:101B400070915E018DE293E00E9485150E94060867
:101B500060916101709162018DE293E00E948515B0
:101B60000E94060860917301709174018DE293E008
:101B70000E9485150E9406086091710170917201A2
:101B80008DE293E00E9485150E9406086091750120
:101B9000709176018DE293E00E9485150E940608FF
:101BA00060911702709118028DE293E00E948515F2
:101BB0000E94060860911702709118028DE293E06E
:101BC0000E9485150E94060860910F027091100214
:101BD0008DE293E00E9485150E9406086091110233
:101BE0007091120257C060913E0170913F018DE2E9
:101BF00093E00E9485150E94060860912201709171
:101C000023018DE293E00E9485150E9406086091F1
:101C10002401709125018DE293E00E9485150E94B8
:101C2000060860912601709127018DE293E00E94E1
:101C300085150E94060882E090E060E070E00E9456
:101C40000C0860914801709149018DE293E00E9477
:101C500085150E94060860914A0170914B018DE242
:101C600093E00E9485150E94060860914C017091D6
:101C70004D0110C0C6E1D1E0699179918DE293E008
:101C80000E9485150E94060881E0C032D807A1F79E
:101C9000688179818DE293E00E948D1509C08DE203
:101CA00093E060E071E00E94BB1488E580937B01C3
:101CB000DF91CF9108950E94A1116093D701709395
:101CC000D8018093D9019093DA012091DB01309102
:101CD000DC01AB01421B530B5093F0014093EF0129
:101CE0006093DB017093DC018093DD019093DE0152
:101CF0002091EB013091EC014091ED015091EE010A
:101D00002C593F4F4F4F5F4F26173707480759074A
:101D100090F40E94210B8091D7019091D801A0915D
:101D2000D901B091DA018093EB019093EC01A0937B
:101D3000ED01B093EE018091E7019091E801A0914F
:101D4000E901B091EA010296A11DB11D2091D701D0
:101D50003091D8014091D9015091DA01821793074F
:101D6000A407B50710F40E94D4088091E301909174
:101D7000E401A091E501B091E6010296A11DB11D1B
:101D80002091D7013091D8014091D9015091DA01C9
:101D900082179307A407B50708F07BC110921B02B6
:101DA00080911201909113018D5D9540FCF080911E
:101DB00018019091190120913C0130913D01821B45
:101DC000930BC2968536910588F480911601909107
:101DD000170120913A0130913B01821B930BC2966F
:101DE0008536910518F481E080931B0280910F02E3
:101DF000909110026FE070E00E94F3168091130240
:101E000090911402680F791F6531710514F064E137
:101E100070E09B018FEF6C3E780714F42CEE3FEFDF
:101E200030931402209313028091110290911202B8
:101E30006FE070E00E94F3168091150290911602F7
:101E4000680F791F6531710514F064E170E0AFEF40
:101E50006C3E7A0714F46CEE7FEF70931602609379
:101E600015021216130634F4215030403093140238
:101E700020931302809113029091140297FF05C0E2
:101E8000019690931402809313021616170634F4E9
:101E90006150704070931602609315028091150294
:101EA0009091160297FF05C00196909316028093B9
:101EB000150280911B02882389F080911302909172
:101EC000140290931802809317028091150290914A
:101ED000160290931A028093190208C010921802F9
:101EE0001092170210921A02109219028091220188
:101EF00090912301209117023091180260915F01A7
:101F00007091600164527A4F821B930B41EF51E054
:101F10000E944F07909349018093480180912401CA
:101F2000909125014091190250911A026CED75E0D3
:101F300020915D0130915E01621B730B841B950B38
:101F40004BEF51E00E944F0790934B0180934A0161
:101F5000609161017091620164527A4F8091260113
:101F60009091270145E052E00E944F07BC019093F9
:101F70004D0180934C0180914E01882309F475C076
:101F8000E0912801F091290180914A0190914B0143
:101F90009F01281B390B260F371F40914F0150918D
:101FA00050012417350714F49A0106C0A7E0213D1B
:101FB0003A0714F020ED37E03093410120934001BF
:101FC0009C012E0F3F1F260F371F2417350714F4CF
:101FD0009A0106C087E0213D380714F020ED37E074
:101FE000309343012093420180914801909149012F
:101FF0009C012E0F3F1F261B370B2417350714F4A7
:102000009A0106C0A7E0213D3A0714F020ED37E021
:1020100030934701209346019F01281B390B261B53
:10202000370B2417350714F4CA0107C0C90127E08C
:10203000813D920714F080ED97E0909345018093E5
:102040004401EC54F4401CF550934101409340018D
:102050005093430140934201509345014093440102
:10206000509347014093460112C088EE93E090934D
:1020700041018093400190934301809342019093EA
:1020800045018093440190934701809346010E944B
:10209000A6098091DF019091E001A091E101B0914A
:1020A000E2018C599F4FAF4FBF4F2091D701309124
:1020B000D8014091D9015091DA0182179307A40702
:1020C000B50790F40E94A80B8091D7019091D80198
:1020D000A091D901B091DA018093DF019093E001E2
:1020E000A093E101B093E2010E9419050895DF92E7
:1020F000EF92FF920F931F938C0168E8E62E61E048
:10210000F62EC701B8010E94B401D82E0F5F1F4FF1
:10211000C701B8010E94B401982F8D2D1F910F9116
:10212000FF90EF90DF90089580E490E00E94771098
:1021300090936801809367018CE390E00E94771090
:10214000909366018093650184E490E00E9477108B
:1021500090936A018093690180E690E00E94771075
:10216000909354018093530184E690E00E9477108D
:10217000909352018093510188E690E00E9477107D
:10218000909356018093550180E090E00E94771073
:102190009093F2018093F10184E090E00E94771027
:1021A0009093F4018093F30188E090E00E9477100F
:1021B0009093F6018093F5018CE790E00E947710F0
:1021C0009093FC018093FB0180E890E00E947710DF
:1021D0009093FE018093FD0184E890E00E947710C7
:1021E000909300028093FF0188E190E00E947710B5
:1021F00090930602809305028CE190E00E94771094
:10220000909308028093070280E290E00E9477108A
:1022100090930A028093090284E290E00E94771072
:1022200090937A018093790180E390E00E94771087
:1022300090933F0180933E0184E390E00E947710E9
:10224000909364018093630188E390E00E9477108B
:10225000909378018093770108958DE293E040E0B8
:1022600052EC61E070E00E94DB128DE061E00E94C0
:1022700031120E9494100E9495090E94C7090E9481
:10228000C5080E94760A0E94A1116093DB01709339
:10229000DC018093DD019093DE018DE061E00E941E
:1022A000511208950E94D9110E942D110E945B0EB7
:1022B000FDCF1F920F920FB60F9211242F933F93D1
:1022C0008F939F93AF93BF938091A4029091A502A7
:1022D000A091A602B091A7023091A8020196A11D7B
:1022E000B11D232F2D5F2D3720F02D570196A11DF5
:1022F000B11D2093A8028093A4029093A502A093FD
:10230000A602B093A7028091A0029091A102A09191
:10231000A202B091A3020196A11DB11D8093A0025B
:102320009093A102A093A202B093A302BF91AF9198
:102330009F918F913F912F910F900FBE0F901F9003
:1023400018958FB7F8942091A4023091A50240917E
:10235000A6025091A7028FBFB901CA010895EF925A
:10236000FF920F931F937B018C018FB7F8944091DC
:10237000A4025091A5026091A6027091A7028FBF9E
:102380002FB7F8948091A4029091A502A091A60283
:10239000B091A7022FBF841B950BA60BB70BE816B5
:1023A000F9060A071B0760F71F910F91FF90EF9046
:1023B0000895789484B5826084BD84B5816084BDBD
:1023C00085B5826085BD85B5816085BDEEE6F0E0AE
:1023D000808181608083E1E8F0E080818260808399
:1023E000808181608083E0E8F0E08081816080838B
:1023F000E1EBF0E0808184608083E0EBF0E08081BD
:1024000081608083EAE7F0E080818460808380815E
:102410008260808380818160808380818068808306
:102420001092C10008958F7090917C019295990F40
:10243000990F907C982B90937C0080917A00806417
:1024400080937A0080917A0086FDFCCF20917800FD
:1024500040917900942F80E030E0282B392BC9017E
:102460000895282F30E0C90186569F4FFC019491B2
:102470002A573F4FF9018491882391F0E82FF0E02B
:10248000EE0FFF1FE859FF4FA591B491662329F481
:102490008C91909589238C9308958C91892B8C93A2
:1024A0000895482F50E0CA0182559F4FFC012491A6
:1024B000CA0186569F4FFC0194914A575F4FFA011B
:1024C00034913323D1F1222331F1233021F480914F
:1024D00080008F7705C0243031F4809180008F7D9B
:1024E0008093800018C0213019F484B58F7704C020
:1024F000223021F484B58F7D84BD0DC0263021F4B7
:102500008091B0008F7705C0273029F48091B0000A
:102510008F7D8093B000E32FF0E0EE0FFF1FEE58A9
:10252000FF4FA591B491662329F48C91909589234E
:102530008C9308958C91892B8C9308951F920F9200
:102540000FB60F9211242F933F934F935F936F9386
:102550007F938F939F93AF93BF93EF93FF9340919C
:10256000C600E0912903F0912A03CF01019660E8AB
:1025700070E00E94F3169C0180912B0390912C0334
:102580002817390739F0E755FD4F408330932A0368
:1025900020932903FF91EF91BF91AF919F918F916C
:1025A0007F916F915F914F913F912F910F900FBE4F
:1025B0000F901F9018955F926F927F928F929F92CB
:1025C000AF92BF92CF92DF92EF92FF920F931F9341
:1025D000CF93DF93EC013A014B01413482E4580779
:1025E0008FE0680780E078070CF07FC060E874E84F
:1025F0008EE190E0A40193010E9428172150304001
:1026000040405040CA01B90122E030E040E050E0D3
:102610000E94281759016A01A6019501209530955D
:102620004095509594E0220F331F441F551F9A95F3
:10263000D1F760E074E284EF90E00E942817CA01AD
:10264000B9012FEF30E040E050E00E94D416A40121
:1026500093010E942817C90181509F4F181619062F
:102660001CF4522E5A9403C055245394521A60E01D
:1026700079E08DE390E0A40193010E942817215096
:10268000304040405040CA01B90122E030E040E013
:1026900050E00E942817209530954095509583E092
:1026A000220F331F441F551F8A95D1F760E074E253
:1026B00084EF90E00E942817CA01B9012FEF30E0A3
:1026C00040E050E00E94D416A40193010E94281714
:1026D000C90181509F4F181619061CF4822F815092
:1026E00002C081E0821B851500F5E885F98581E04F
:1026F00090E00A8802C0880F991F0A94E2F780834D
:1027000060E079E08DE390E0A40193010E94281736
:102710002150304040405040CA01B90122E030E031
:1027200040E050E00E94281704C0E885F985108237
:102730009501EC81FD813083EE81FF812083EA8564
:10274000FB85208141E050E0CA010E8402C0880F61
:10275000991F0A94E2F7282B2083EA85FB852081C4
:10276000CA010F8402C0880F991F0A94E2F7282B30
:102770002083EA85FB858081088802C0440F551FAD
:102780000A94E2F7842B8083DF91CF911F910F9100
:10279000FF90EF90DF90CF90BF90AF909F908F9081
:1027A0007F906F905F900895DC011296ED91FC91FF
:1027B0001397E058FF4F8191919180589F4F20814E
:1027C0003181821B930B60E870E00E94F31608953C
:1027D000CF93DF93DC011296ED91FC911397EF01FB
:1027E000CE57DF4F48815981E058FF4F808191815A
:1027F000E058F0408417950719F42FEF3FEF0CC015
:10280000E40FF51F2081CA01019660E870E00E9484
:10281000F3169983888330E0C901DF91CF91089541
:10282000FC01A085B18521898C9190E0022E02C027
:10283000959587950A94E2F780FFF6CF0484F58595
:10284000E02D6083089581E891E090932E038093BA
:102850002D0389EA92E09093300380932F0385EC57
:1028600090E0909332038093310384EC90E0909356
:1028700034038093330380EC90E09093360380938D
:10288000350381EC90E0909338038093370386EC16
:1028900090E090933A038093390384E080933B0364
:1028A00083E080933C0387E080933D0385E0809341
:1028B0003E0381E080933F0308950F931F93CF93CE
:1028C000DF938C01EB0109C02196D801ED91FC91B9
:1028D0000190F081E02DC801099568816623A1F778
:1028E000DF91CF911F910F910895EF92FF920F9377
:1028F0001F93CF93DF938C017B01EA010CC0D701BA
:102900006D917D01D801ED91FC910190F081E02D58
:10291000C80109952197209791F7DF91CF911F91D9
:102920000F91FF90EF900895DC01ED91FC910190E3
:10293000F081E02D09950895DC01ED91FC91028074
:10294000F381E02D099508950F931F938C01DC010D
:10295000ED91FC910190F081E02D6DE00995D80199
:10296000ED91FC910190F081E02DC8016AE009959C
:102970001F910F9108950F931F938C010E949C1437
:10298000C8010E94A4141F910F9108952F923F92A5
:102990004F925F926F927F928F929F92AF92BF926F
:1029A000CF92DF92EF92FF920F931F93DF93CF931B
:1029B000CDB7DEB7A0970FB6F894DEBF0FBECDBF80
:1029C0001C016A017B01411551056105710549F43E
:1029D000DC01ED91FC910190F081E02D60E309951F
:1029E00054C0882499245401422E55246624772407
:1029F00001E010E00C0F1D1F080D191DC701B601E5
:102A0000A30192010E940617F80160830894811CBB
:102A1000911CA11CB11CC701B601A30192010E9427
:102A20000617C901DA016C017D01C114D104E1046A
:102A3000F104F1F681E0E82EF12CEC0EFD1EE80C1D
:102A4000F91C3E010894611C711CD501C401019759
:102A5000A109B1096C01C818D90814C0F601EE0D1E
:102A6000FF1D60816A3010F4605D01C0695CD101B6
:102A7000ED91FC910190F081E02DC1010995089440
:102A8000E108F1086E147F0449F7A0960FB6F89498
:102A9000DEBF0FBECDBFCF91DF911F910F91FF9091
:102AA000EF90DF90CF90BF90AF909F908F907F90EE
:102AB0006F905F904F903F902F900895EF92FF920C
:102AC0000F931F93CF93DF93EC017A018B0177FF74
:102AD0000FC0E881F9810190F081E02D6DE2099548
:102AE00010950095F094E094E11CF11C011D111D5E
:102AF000CE01B801A7012AE00E94C614DF91CF9150
:102B00001F910F91FF90EF900895AB01662757FD3D
:102B10006095762F0E945E1508950F931F938C0188
:102B2000AB01662757FD6095762F0E945E15C801A0
:102B30000E94A4141F910F910895DC012115310505
:102B400041F4ED91FC910190F081E02D642F099505
:102B500008952A30310519F40E945E1508950E94E7
:102B6000C614089504D06894B111B5C0089598D0E2
:102B700088F09F5790F0B92F9927B751A0F0D1F066
:102B8000660F771F881F991F1AF0BA95C9F712C0F0
:102B9000B13081F09FD0B1E008959CC0672F782FAD
:102BA0008827B85F39F0B93FCCF38695779567955C
:102BB000B395D9F73EF490958095709561957F4FC8
:102BC0008F4F9F4F0895E89409C097FB3EF490956E
:102BD0008095709561957F4F8F4F9F4F9923A9F0F6
:102BE000F92F96E9BB279395F69587957795679585
:102BF000B795F111F8CFFAF4BB0F11F460FF1BC0C9
:102C00006F5F7F4F8F4F9F4F16C0882311F096E95B
:102C100011C0772321F09EE8872F762F05C0662309
:102C200071F096E8862F70E060E02AF09A95660FC2
:102C3000771F881FDAF7880F9695879597F908957B
:102C400097F99F6780E870E060E008959FEF80EC5F
:102C5000089500240A941616170618060906089502
:102C600000240A9412161306140605060895092E68
:102C70000394000C11F4882352F0BB0F40F4BF2BD7
:102C800011F460FF04C06F5F7F4F8F4F9F4F089517
:102C900057FD9058440F551F59F05F3F71F047950D
:102CA000880F97FB991F61F09F3F79F087950895F2
:102CB000121613061406551FF2CF4695F1DF08C011
:102CC000161617061806991FF1CF8695710561052E
:102CD00008940895E894BB2766277727CB0197F9D6
:102CE00008950BD0C4CFB5DF28F0BADF18F09523D4
:102CF00009F0A6CFABCF1124EECFCADFA0F3959F8A
:102D0000D1F3950F50E0551F629FF001729FBB27D2
:102D1000F00DB11D639FAA27F00DB11DAA1F649F7E
:102D20006627B00DA11D661F829F2227B00DA11D31
:102D3000621F739FB00DA11D621F839FA00D611DB7
:102D4000221F749F3327A00D611D231F849F600DD8
:102D5000211D822F762F6A2F11249F5750408AF011
:102D6000E1F088234AF0EE0FFF1FBB1F661F771F9D
:102D7000881F91505040A9F79E3F510570F060CFD9
:102D8000AACF5F3FECF3983EDCF386957795679585
:102D9000B795F795E7959F5FC1F7FE2B880F911DBB
:102DA0009695879597F90895629FD001739FF001DA
:102DB000829FE00DF11D649FE00DF11D929FF00DCB
:102DC000839FF00D749FF00D659FF00D9927729F02
:102DD000B00DE11DF91F639FB00DE11DF91FBD018D
:102DE000CF011124089597FB092E07260AD077FDFD
:102DF00004D049D006D000201AF4709561957F4F19
:102E00000895F6F7909581959F4F0895A1E21A2EA7
:102E1000AA1BBB1BFD010DC0AA1FBB1FEE1FFF1F7E
:102E2000A217B307E407F50720F0A21BB30BE40BCE
:102E3000F50B661F771F881F991F1A9469F7609515
:102E40007095809590959B01AC01BD01CF010895CF
:102E500097FB092E05260ED057FD04D0D7DF0AD0E8
:102E6000001C38F450954095309521953F4F4F4FB9
:102E70005F4F0895F6F790958095709561957F4F17
:102E80008F4F9F4F0895AA1BBB1B51E107C0AA1F7C
:102E9000BB1FA617B70710F0A61BB70B881F991FFB
:102EA0005A95A9F780959095BC01CD010895EE0F34
:0E2EB000FF1F0590F491E02D0994F894FFCFD8
:102EBE00312E33002000440300000000000000000B
:102ECE0000000000000000000000000000000000F4
:102EDE0000000000000000000000000000001000D4
:102EEE0010000800100010001000DC05DC050300C7
:102EFE00E803E803E803E80300000000000000E830
:102F0E0003000000000000000000000000000000B0
:102F1E0000000003000000000000000000000000A0
:102F2E00000000000000000300E80358010000004C
:082F3E000010145D147514006D
:00000001FF
